:03000000020AE70A
:0C0AE700787FE4F6D8FD7581150208F652
:060AF300000000000000FD
:0D0A7300E583458224FFB392B77F647E00C7
:100A8000E4FDFCE4FBFAC3EB9FEE6480F8EA6480CB
:100A90009850070BBB00010A80EC0DBD00010CBC97
:050AA00003E1BDE9DEE9
:010AA500222E
:0F0AD700900000120A73A3E5826402458370F455
:010AE60022ED
:100AA600E4F510F511900000E510451124FFB3920E
:100AB600B6120A73A3E5826402458370EB0511E55D
:100AC6001170020510C39402E5106480948040D52D
:010AD60022FD
:100A1800E4F510F511E4F512F513900000E58345AF
:100A28008224FFB392B7E512451324FFB392B6E5CB
:100A380010451124FFB392B1120A7CA3E582640227
:100A4800458370D90513E51370020512C39402E5B6
:100A5800126480948040C30511E51170020510C32B
:0A0A68009402E5106480948040AB16
:010A72002261
:10099C00E4F510F511E4F512F513E4F514F51590E2
:1009AC000000E583458224FFB392B7E51445152476
:1009BC00FFB392B6E512451324FFB392B1E510458F
:1009CC001124FFB392B0120A7CA3E5826402458322
:1009DC0070D00515E51570020514C39402E5146476
:1009EC0080948040BA0513E51370020512C394027B
:1009FC00E5126480948040A20511E5117002051087
:0B0A0C00C39402E51064809480408ACF
:010A170022BC
:1008F60078087C007D007BFF7A0A79F37E007F060C
:100906001208D0D2B2E4F50EF50F20B3047F0180B1
:10091600027F007508008F0920B4047F0180027FE2
:1009260000750A008F0B20B5047F0180027F0075D9
:100936000C008F0DE4FDFCED25E02408F8E6FA082E
:10094600E6FBE50F25E0FFE50E33FEEF2BF50FEE98
:100956003AF50E0DBD00010CED64034C70D9E50FA0
:100966006401450E7005120AD7809AE50F640245A8
:100976000E7005120AA6808DE50F6403450E7005FC
:10098600120A188080E50F6404450E600302090B05
:0609960012099C02090B8E
:10080000E709F608DFFA8046E709F208DFFA803EDA
:1008100088828C83E709F0A3DFFA8032E309F608C7
:10082000DFFA8078E309F208DFFA807088828C832F
:10083000E309F0A3DFFA806489828A83E0A3F608E3
:10084000DFFA805889828A83E0A3F208DFFA804CBD
:1008500080D280FA80C680D4806980F28033801094
:1008600080A680EA809A80A880DA80E280CA8033FD
:1008700089828A83ECFAE493A3C8C582C8CCC58375
:10088000CCF0A3C8C582C8CCC583CCDFE9DEE78045
:100890000D89828A83E493A3F608DFF9ECFAA9F0C4
:1008A000EDFB2289828A83ECFAE0A3C8C582C8CC1A
:1008B000C583CCF0A3C8C582C8CCC583CCDFEADE33
:1008C000E880DB89828A83E493A3F208DFF980CC95
:1008D00088F0EF60010E4E60C388F0ED2402B4048E
:1008E0000050B9F582EB2402B4040050AF23234535
:0608F00082239008507302
:00000001FF
